:100000000C942A001895000018950000189500001F
:10001000189500001895000018950000189500002C
:10002000189500001895000018950000189500001C
:10003000189500001895000018950000189500000C
:1000400018950000189500001895000018950000FC
:10005000189500008FE58DBFC8E3E0E24E2E88E0E2
:100060008EBFD8E0F8E05F2EA89584B7082E877F72
:1000700084BF88E1992781BD91BDEEEFF7E0A0E64E
:10008000B0E088278D933197E9F7662470EF7ABB4B
:100090007FEF77BB7FEF74BB7FEF71BB0E944D0298
:1000A0000E944D0280918002AAE6B2E00E943803CD
:1000B00080918102ADE6B2E00E9438038091820215
:1000C000A0E7B2E00E943803E0E7F2E0A3E7B2E085
:1000D0000E948303A3E7B2E00E943103EEEDF7E054
:1000E0000E946903EDE6F2E0A3E7B2E00E9431036B
:1000F0000E948303A3E7B2E00E943103EEEDF7E034
:100100000E946903EAE6F2E0A3E7B2E00E9431034D
:100110000E94830381E090E0A4E6B0E08D939C937D
:1001200081E090E0A0E6B0E08D939C93A0E6B0E083
:100130000D911C91083050E0150718F011F00C9447
:10014000D5000E948B0181E090E0A8E6B0E08D939D
:100150009C93A8E6B0E00D911C91083050E0150783
:1001600018F011F00C94CE000E942703A4E6B0E032
:10017000AD90BD90A9E6B0E0AA0DBB1D0E946F0333
:100180000C920E942403A4E6B0E00E942A03A8E691
:10019000B0E00E942A0310F40C94A900A0E6B0E09D
:1001A0000E942A0310F40C94960081E090E0A6E6E9
:1001B000B0E08D939C93A6E6B0E00D911C910436BF
:1001C00050E0150718F011F00C94870180E090E0E2
:1001D000A2E6B0E08D939C93A2E6B0E00D911C9155
:1001E000073050E0150718F011F00C948001A2E6DA
:1001F000B0E0AD90BD90AAE6B0E0AA0DBB1D8C9119
:1002000082BBA89A0000A898A2E6B0E0AD90BD908D
:10021000A2E7B0E0AA0DBB1D8C9182BBA99A000099
:10022000A998A2E6B0E0AD90BD90AAE7B0E0AA0D13
:10023000BB1D8C9182BBAA9A0000AA98A2E6B0E0EE
:10024000AD90BD90A2E8B0E0AA0DBB1D8C9182BB21
:10025000AB9A0000AB98A2E6B0E0AD90BD90AAE8E2
:10026000B0E0AA0DBB1D8C9182BBAC9A0000AC988B
:10027000A2E6B0E0AD90BD90A2E9B0E0AA0DBB1D32
:100280008C9182BBAD9A0000AD98A2E6B0E0AD9033
:10029000BD90AAE9B0E0AA0DBB1D8C9182BBDD9A8E
:1002A0000000DD98A2E6B0E0AD90BD90A2EAB0E01B
:1002B000AA0DBB1D8C9182BBDE9A0000DE98809156
:1002C0006200A8E3B0E00E947D030E9473038C915A
:1002D00089238C9381E090E00E945A038091620010
:1002E000A8E3B0E00E947D030E9473039C91982BC9
:1002F0009C93A2E6B0E00E942A0310F40C94EC0058
:10030000A6E6B0E00E942A0310F40C94DB000C94E3
:100310004E00F894FFCFA0E6B0E0AD90BD90A2E70C
:10032000B2E0AA0DBB1D0C91003211F00C949C019F
:100330000E9407020C9406020E3211F00C94A401E4
:100340000E940C020C9406020F3211F00C94AC01C6
:100350000E9411020C940602003311F00C94B401B7
:100360000E9416020C940602013311F00C94BC0199
:100370000E941B020C940602023311F00C94C4017B
:100380000E9420020C940602033311F00C94CC015D
:100390000E9425020C940602043311F00C94D4013F
:1003A0000E942A020C940602053311F00C94DC0121
:1003B0000E942F020C940602063311F00C94E40103
:1003C0000E9434020C940602073311F00C94EC01E5
:1003D0000E9439020C940602083311F00C94F401C7
:1003E0000E943E020C940602093311F00C94FC01A9
:1003F0000E9443020C9406020A3311F00C9404028A
:100400000E9448020C9406020E9407020895E8ED3B
:10041000F5E00E9424030895E0EEF5E00E94240335
:100420000895E8EEF5E00E9424030895E0EFF5E07A
:100430000E9424030895E8EFF5E00E942403089544
:10044000E0E0F6E00E9424030895E8E0F6E00E9470
:1004500024030895E0E1F6E00E9424030895E8E112
:10046000F6E00E9424030895E0E2F6E00E942403EF
:100470000895E8E2F6E00E9424030895E0E3F6E040
:100480000E9424030895E8E3F6E00E9424030895FF
:10049000E0E4F6E00E94240308950E949D0310ED1D
:1004A0000E94B50310E00E94B5030E949D0311ED68
:1004B0000E94B5030E94D403A0E8B2E01C930E94FE
:1004C000D403A1E8B2E01C930E94D403A2E8B2E0F6
:1004D0001C930E94D403A6E8B2E01C930E94D403AC
:1004E000A3E8B2E01C930E94D403A4E8B2E01C93FA
:1004F0000E94D203A5E8B2E01C930E94AC03909145
:1005000081020E944A03A7E8B2E08C939091820294
:100510000E944A03A8E8B2E08C9308958091830278
:100520000E944303A3E8B2E08C93809184020E946E
:100530004303A4E8B2E08C93809185020E944303B8
:10054000A5E8B2E08C930E949D0310ED0E94B503D4
:1005500013E00E94B503109189020E94B503109127
:1005600083020E94B503109184020E94B50310918A
:1005700085020E94B5030E94AC0308958091800219
:100580000E944303A0E8B2E08C93809181020E9414
:100590004303A1E8B2E08C93809182020E9443035E
:1005A000A2E8B2E08C930E949D0310ED0E94B50377
:1005B00010E00E94B503109180020E94B5031091D3
:1005C00081020E94B503109182020E94B5030E942D
:1005D000AC030895F894FFCF000000000000000075
:1005E0000000000000181800060C183060C08000E1
:1005F0007CCEDEF6E6C67C00307030303030FC0059
:1006000078CC0C3860CCFC0078CC0C380CCC780062
:100610001C3C6CCCFE0C1E00FCC0F80C0CCC780012
:100620003860C0F8CCCC7800FCCC0C1830303000EE
:1006300078CCCC78CCCC780078CCCC7C0C18700002
:1006400000181800001818008E2E9F2E0895E82D0F
:10065000F92D0895ED91FC91EF5FFF4FFC93EE9320
:1006600008958F938D918823E9F711978F910895BD
:10067000982F82958F70805D8D939F70905D9D9374
:1006800088278C9308954AE0082F0E9488030295DA
:10069000802B0895892F8F70905110F0865FFCCFCA
:1006A00008953197F1F70895689462F80895E894F1
:1006B00062F80895EF93FF93EE27E82BE92B31F0D2
:1006C000E8EBFBE03197F1F70197D1F7FF91EF915C
:1006D00008950E946F030D920020D9F70895C895E0
:1006E00031960020089591E0882321F08894991F85
:1006F0008A95E9F7892F90950895883018F011961A
:100700008850FBCF089581918D938823E1F7089558
:10071000FF93881BF9E0001FFA9511F4FF910895EB
:10072000881F841B18F4840F8894F5CF0894F3CFA6
:10073000D198D098D998D8980895D09AD19803D0C4
:10074000D09801D0D19AEF93FF93EBE0F0E00E94B4
:100750005103FF91EF910895D09AD19AF4DFD09888
:10076000C89BFECFF0DFD198EECF0894111F01C0D7
:10077000110F69F0D09A18F40000D19802C0D19AF4
:1007800000C0E1DFD098C89BFECFDDDFF1CFD09A6B
:10079000D198D9DFD098C89BFECFE894C9996894C6
:1007A00062F8D1CF089401C08894331F11E0D09A29
:1007B000D198C9DFD098C89BFECFC5DF8894C9996E
:1007C0000894111FA0F7D09A379510F4D19801C062
:1007D000D19AB9DFD098C89BFECFB5DF08953A0013
:00000001FF
